:100000000C9435000C945D000C945D000C945D0024
:100010000C945D000C945D000C945D000C945D00EC
:100020000C945D000C945D000C945D000C945D00DC
:100030000C945D000C945D000C945D000C945D00CC
:100040000C948C020C945D000C94A6000C945D0042
:100050000C945D000C945D000C945D000C945D00AC
:100060000C945D000C945D005F0111241FBECFEF66
:10007000D8E0DEBFCDBF11E0A0E0B1E0E8E9F7E0F5
:1000800002C005900D92A630B107D9F711E0A6E0A5
:10009000B1E001C01D92AC3AB107E1F710E0CAE649
:1000A000D0E004C02297FE010E94C603C836D107E3
:1000B000C9F70E949F000C94CA030C940000109290
:1000C00007011092060127C08BB183708BB9220FF4
:1000D000331F220F331F30930901209308018BB186
:1000E000822B8BB94BB150E060E070E08EE891E07C
:1000F00022E030E00E94810264EF71E080E090E055
:100100000E94FC0280910601909107010196909354
:1001100007018093060120910601309107012034E8
:10012000310594F208958AB18C6F8AB98EE891E016
:1001300040E855E260E070E00E94E30008950E940C
:1001400026030E9493000E945F00FDCF1F920F9232
:100150000FB60F9211242F933F934F935F936F939A
:100160007F938F939F93AF93BF93EF93FF934091B0
:10017000C600E0918A01F0918B01CF01019660E801
:1001800070E00E9460039C0180918C0190918D0130
:100190002817390739F0E65FFE4F408330938B0113
:1001A00020938A01FF91EF91BF91AF919F918F9121
:1001B0007F916F915F914F913F912F910F900FBE63
:1001C0000F901F901895AF92BF92CF92DF92EF924F
:1001D000FF920F931F93CF93DF936C017A018B01F2
:1001E000DC011496AD90BC901597CB01BA0122E0CA
:1001F00030E040E050E00E949503205C3D4B404FD2
:100200005F4FCA01B901A80197010E949503C90176
:10021000DA010197A109B109292F3A2F4B2F552750
:1002200047FD5A950196A11DB11DE5012883E60100
:10023000EE81FF8181508083EA85FB85208141E04A
:1002400050E0CA010E8402C0880F991F0A94E2F799
:10025000282B2083EA85FB852081CA010F8402C0F8
:10026000880F991F0A94E2F7282B2083EA85FB85E3
:100270008081088802C0440F551F0A94E2F7842B3E
:100280008083DF91CF911F910F91FF90EF90DF90CE
:10029000CF90BF90AF900895FC01A085B1852189D2
:1002A0008C9190E0022E02C0959587950A94E2F712
:1002B00080FFF6CF0484F585E02D6083089584E007
:1002C00091E090938F0180938E018AE091E090936A
:1002D00091018093900185EC90E09093930180933D
:1002E000920184EC90E0909395018093940180ECCE
:1002F00090E0909397018093960181EC90E0909329
:1003000099018093980186EC90E090939B018093F3
:100310009A0184E080939C0183E080939D0187E0B3
:1003200080939E0185E080939F0108950F931F9312
:100330008C01DC01ED91FC910190F081E02D6DE0EC
:100340000995D801ED91FC910190F081E02DC80153
:100350006AE009951F910F9108952F923F924F9255
:100360005F926F927F928F929F92AF92BF92CF9245
:10037000DF92EF92FF920F931F93DF93CF93CDB74E
:10038000DEB7A0970FB6F894DEBF0FBECDBF1C013D
:100390006A017B01411551056105710549F4DC01D4
:1003A000ED91FC910190F081E02D60E3099554C03E
:1003B000882499245401422E55246624772401E090
:1003C00010E00C0F1D1F080D191DC701B601A30178
:1003D00092010E947303F80160830894811C911CB0
:1003E000A11CB11CC701B601A30192010E947303B5
:1003F000C901DA016C017D01C114D104E104F104E9
:10040000F1F681E0E82EF12CEC0EFD1EE80CF91C53
:100410003E010894611C711CD501C4010197A1091A
:10042000B1096C01C818D90814C0F601EE0DFF1D02
:1004300060816A3010F4605D01C0695CD101ED91AA
:10044000FC910190F081E02DC10109950894E1082B
:10045000F1086E147F0449F7A0960FB6F894DEBF3A
:100460000FBECDBFCF91DF911F910F91FF90EF9005
:10047000DF90CF90BF90AF909F908F907F906F90C4
:100480005F904F903F902F900895EF92FF920F93BF
:100490001F93CF93DF93EC017A018B0177FF0FC09D
:1004A000E881F9810190F081E02D6DE209951095C8
:1004B0000095F094E094E11CF11C011D111DCE018A
:1004C000B801A7012AE00E94AD01DF91CF911F91F1
:1004D0000F91FF90EF900895DC012115310541F453
:1004E000ED91FC910190F081E02D642F0995089524
:1004F0002A30310519F40E94450208950E94AD0189
:1005000008950F931F938C010E946C02C8010E94F2
:1005100096011F910F9108951F920F920FB60F929F
:1005200011242F938F939F93AF93BF938091A0013A
:100530009091A101A091A201B091A3010196A11DEA
:10054000B11D8093A0019093A101A093A201B0934B
:10055000A3018091A4019091A501A091A601B09161
:10056000A7018050904CAF4FBF4F8093A401909350
:10057000A501A093A601B093A70127C08091A40173
:100580009091A501A091A601B091A70180589E432A
:10059000A040B0408093A4019093A501A093A60130
:1005A000B093A7018091A8019091A901A091AA01FF
:1005B000B091AB010196A11DB11D8093A80190934C
:1005C000A901A093AA01B093AB018091A4019091DD
:1005D000A501A091A601B091A70181589E43A0401A
:1005E000B04060F6BF91AF919F918F912F910F9086
:1005F0000FBE0F901F901895EF92FF920F931F93CD
:100600007B018C018FB7F8944091A8015091A9010A
:100610006091AA017091AB018FBF2FB7F8948091C0
:10062000A8019091A901A091AA01B091AB012FBF9F
:10063000841B950BA60BB70BE816F9060A071B07D8
:1006400060F71F910F91FF90EF900895789484B513
:10065000826084BD84B5816084BD85B5826085BDBE
:1006600085B5816085BDEEE6F0E0808181608083A4
:10067000E1E8F0E080818260808380818160808316
:10068000E0E8F0E0808181608083E1EBF0E0808150
:1006900084608083E0EBF0E0808181608083EAE722
:1006A000F0E08081846080838081826080838081AB
:1006B000816080838081806880831092C10008956A
:1006C00097FB092E07260AD077FD04D049D006D023
:1006D00000201AF4709561957F4F0895F6F7909574
:1006E00081959F4F0895A1E21A2EAA1BBB1BFD0105
:1006F0000DC0AA1FBB1FEE1FFF1FA217B307E40701
:10070000F50720F0A21BB30BE40BF50B661F771F58
:10071000881F991F1A9469F7609570958095909538
:100720009B01AC01BD01CF01089597FB092E052661
:100730000ED057FD04D0D7DF0AD0001C38F45095F6
:100740004095309521953F4F4F4F5F4F0895F6F7F5
:1007500090958095709561957F4F8F4F9F4F08952D
:10076000AA1BBB1B51E107C0AA1FBB1FA617B707D7
:1007700010F0A61BB70B881F991F5A95A9F78095F3
:100780009095BC01CD010895EE0FFF1F0590F491E7
:08079000E02D0994F894FFCF5D
:06079800000000004C010E
:00000001FF
