:100000000C9435000C945D000C945D000C945D0024
:100010000C945D000C945D000C945D000C945D00EC
:100020000C945D000C945D000C945D000C945D00DC
:100030000C945D000C945D000C945D000C945D00CC
:100040000C94C6020C945D000C94A4000C945D000A
:100050000C945D000C945D000C945D000C945D00AC
:100060000C945D000C945D00990111241FBECFEF2C
:10007000D8E0DEBFCDBF11E0A0E0B1E0ECE0F8E0F9
:1000800002C005900D92A630B107D9F711E0A6E0A5
:10009000B1E001C01D92AA3AB107E1F710E0CAE64B
:1000A000D0E004C02297FE010E940004C836D107A8
:1000B000C9F70E949D000C9404040C9400008CE885
:1000C00091E00E944A01882399F08CE891E00E9417
:1000D0005E01AC019093070180930601662757FDEE
:1000E0006095762F8CE891E022E030E00E94BB0220
:1000F0008BB183708BB98BB190910601892B8BB931
:100100004BB150E060E070E08CE891E022E030E03C
:100110000E94BB0264EF71E080E090E00E94360331
:1001200008958AB18C6F8AB98CE891E040E855E275
:1001300060E070E00E94E10008950E9460030E9468
:1001400091000E945F00FDCF1F920F920FB60F9299
:1001500011242F933F934F935F936F937F938F93CC
:100160009F93AF93BF93EF93FF934091C600E091AD
:100170008801F0918901CF01019660E870E00E944A
:100180009A039C0180918A0190918B01281739076D
:1001900039F0E85FFE4F4083309389012093880156
:1001A000FF91EF91BF91AF919F918F917F916F914F
:1001B0005F914F913F912F910F900FBE0F901F9025
:1001C0001895AF92BF92CF92DF92EF92FF920F936A
:1001D0001F93CF93DF936C017A018B01DC0114969E
:1001E000AD90BC901597CB01BA0122E030E040E021
:1001F00050E00E94CF03205C3D4B404F5F4FCA014F
:10020000B901A80197010E94CF03C901DA01019742
:10021000A109B109292F3A2F4B2F552747FD5A9590
:100220000196A11DB11DE5012883E601EE81FF8144
:1002300081508083EA85FB85208141E050E0CA013E
:100240000E8402C0880F991F0A94E2F7282B20839E
:10025000EA85FB852081CA010F8402C0880F991F9F
:100260000A94E2F7282B2083EA85FB8580810888A1
:1002700002C0440F551F0A94E2F7842B8083DF915C
:10028000CF911F910F91FF90EF90DF90CF90BF9093
:10029000AF900895DC011296ED91FC911397E05810
:1002A000FF4F8191919180589F4F20813181821B16
:1002B000930B60E870E00E949A030895CF93DF9358
:1002C000DC011296ED91FC911397EF01CE57DF4FB1
:1002D00048815981E058FF4F80819181E058F0407A
:1002E0008417950719F42FEF3FEF0CC0E40FF51FAB
:1002F0002081CA01019660E870E00E949A03998308
:10030000888330E0C901DF91CF910895FC01A08579
:10031000B18521898C9190E0022E02C09595879538
:100320000A94E2F780FFF6CF0484F585E02D608320
:10033000089584E091E090938D0180938C0188E092
:1003400091E090938F0180938E0185EC90E09093E3
:1003500091018093900184EC90E0909393018093BD
:10036000920180EC90E0909395018093940181EC50
:1003700090E0909397018093960186EC90E09093A3
:1003800099018093980184E080939A0183E080939F
:100390009B0187E080939C0185E080939D010895F7
:1003A0000F931F938C01DC01ED91FC910190F08182
:1003B000E02D6DE00995D801ED91FC910190F0815F
:1003C000E02DC8016AE009951F910F9108952F92C1
:1003D0003F924F925F926F927F928F929F92AF92D5
:1003E000BF92CF92DF92EF92FF920F931F93DF9312
:1003F000CF93CDB7DEB7A0970FB6F894DEBF0FBE90
:10040000CDBF1C016A017B014115510561057105D4
:1004100049F4DC01ED91FC910190F081E02D60E365
:10042000099554C0882499245401422E55246624E9
:10043000772401E010E00C0F1D1F080D191DC701E6
:10044000B601A30192010E94AD03F80160830894F4
:10045000811C911CA11CB11CC701B601A301920112
:100460000E94AD03C901DA016C017D01C114D10400
:10047000E104F104F1F681E0E82EF12CEC0EFD1E12
:10048000E80CF91C3E010894611C711CD501C401E3
:100490000197A109B1096C01C818D90814C0F60167
:1004A000EE0DFF1D60816A3010F4605D01C0695C73
:1004B000D101ED91FC910190F081E02DC1010995F0
:1004C0000894E108F1086E147F0449F7A0960FB66E
:1004D000F894DEBF0FBECDBFCF91DF911F910F917A
:1004E000FF90EF90DF90CF90BF90AF909F908F9054
:1004F0007F906F905F904F903F902F900895EF9274
:10050000FF920F931F93CF93DF93EC017A018B013E
:1005100077FF0FC0E881F9810190F081E02D6DE255
:10052000099510950095F094E094E11CF11C011DD3
:10053000111DCE01B801A7012AE00E94E701DF9159
:10054000CF911F910F91FF90EF900895DC0121153D
:10055000310541F4ED91FC910190F081E02D642F83
:10056000099508952A30310519F40E947F020895F3
:100570000E94E70108950F931F938C010E94A60229
:10058000C8010E94D0011F910F9108951F920F92F0
:100590000FB60F9211242F938F939F93AF93BF9316
:1005A00080919E0190919F01A091A001B091A10125
:1005B0000196A11DB11D80939E0190939F01A09370
:1005C000A001B093A1018091A2019091A301A091FB
:1005D000A401B091A5018050904CAF4FBF4F8093C4
:1005E000A2019093A301A093A401B093A50127C0F9
:1005F0008091A2019091A301A091A401B091A501C5
:1006000080589E43A040B0408093A2019093A301E4
:10061000A093A401B093A5018091A6019091A70198
:10062000A091A801B091A9010196A11DB11D8093CF
:10063000A6019093A701A093A801B093A90180916E
:10064000A2019091A301A091A401B091A5018158AC
:100650009E43A040B04060F6BF91AF919F918F91B3
:100660002F910F900FBE0F901F901895EF92FF9251
:100670000F931F937B018C018FB7F8944091A601D3
:100680005091A7016091A8017091A9018FBF2FB768
:10069000F8948091A6019091A701A091A801B09132
:1006A000A9012FBF841B950BA60BB70BE816F90603
:1006B0000A071B0760F71F910F91FF90EF900895B5
:1006C000789484B5826084BD84B5816084BD85B52D
:1006D000826085BD85B5816085BDEEE6F0E08081F4
:1006E00081608083E1E8F0E08081826080838081A6
:1006F00081608083E0E8F0E0808181608083E1EBCD
:10070000F0E0808184608083E0EBF0E080818160B4
:100710008083EAE7F0E0808184608083808182606A
:100720008083808181608083808180688083109253
:10073000C100089597FB092E07260AD077FD04D043
:1007400049D006D000201AF4709561957F4F089526
:10075000F6F7909581959F4F0895A1E21A2EAA1B56
:10076000BB1BFD010DC0AA1FBB1FEE1FFF1FA21761
:10077000B307E407F50720F0A21BB30BE40BF50B5E
:10078000661F771F881F991F1A9469F760957095E7
:10079000809590959B01AC01BD01CF01089597FB19
:1007A000092E05260ED057FD04D0D7DF0AD0001C35
:1007B00038F450954095309521953F4F4F4F5F4FFE
:1007C0000895F6F790958095709561957F4F8F4FBE
:1007D0009F4F0895AA1BBB1B51E107C0AA1FBB1F57
:1007E000A617B70710F0A61BB70B881F991F5A95BD
:1007F000A9F780959095BC01CD010895EE0FFF1FDC
:0C0800000590F491E02D0994F894FFCFCE
:06080C000000000086015F
:00000001FF
